:100000000C947F300C9407B20C94DCB10C94B1B119
:100010000C9486B10C945BB10C9430B10C9405B186
:100020000C94DAB00C94BC700C946BB00C94F5AFDB
:100030000C94B0300C94B0300C94B0300C94B030C0
:100040000C94B0300C94B0300C94B0300C94B030B0
:100050000C94B0300C94B0300C94B0300C94E3B9E4
:100060000C94B0300C94FB9B0C94D19B0C94B0304E
:100070000C94B0300C94B0300C94B0300C94B03080
:100080000C94B0300C94B0300C94B0300C94B03070
:100090000C94A79B0C947D9B0C94B0300C944C68F2
:1000A0000C94B0300C94B0300C94B0300C94B03050
:1000B0000C94B0300C94B0300C94B0300C94B03040
:1000C0000C94B0300C94B0300C94B0300C94539B22
:1000D0000C94299B0C94B0300C94FF9A0C94D59AF4
:1000E0000C94B0303EAB23AE28AE2DAE32AE37AE60
:1000F00043AE48AE4DAE50AE38B83BB82AB82EB875
:1001000034B872B83FB843B849B84DB851B857B8C9
:100110005BB85FB872B865B869B86DB80763423646
:10012000B79BD8A71A39685618AEBAAB558C1D3C88
:10013000B7CC5763BD6DEDFD753EF6177231BF004C
:100140000000803F08000000BE922449123EABAA86
:10015000AA2ABECDCCCC4C3E00000080BEABAAAAE1
:10016000AA3E00000000BF000000803F0000000029
:1001700000084178D3BB4387D1133D190E3CC3BD62
:100180004282AD2B3E68EC8276BED98FE1A93E4C0F
:1001900080EFFFBE01C4FF7F3F00000000000C9411
:1001A00093500C94CF4B0C9449B80C9448640C9425
:1001B00069B80C9423AE0C948E640C948A990C94B8
:1001C000C0B40C9417640C942F650C94BBB40C94BD
:1001D00085C40C94D04B0C94F94B0C944A640C9449
:1001E000B6980C948F640C9490610C944DB80C9458
:1001F0002EB80C943D990C9472B80C94D9990C9427
:10020000E84B0C948D640C944DAE0C942DAE0C9474
:10021000B4C40C94D9980C94BA640C943F6B0C94AD
:100220003FB80C9465B80C94C5980C945BB80C94CA
:10023000286A0C94D85C0C943BB80C94084C0C9431
:1002400043AE0C948C980C949E640C94B2640C9401
:10025000F9650C9443B80C943EAB0C945FB80C94C5
:1002600028AE0C94E7980C946DB80C9438B80C94A4
:10027000054C0C9448AE0C9432AE0C94E7640C948C
:1002800034B80C9457B80C9450AE0C9451B80C94EC
:100290008C640C9437AE0C942AB84E414E494E49AA
:1002A0005459494E46CDCCCC3D0AD7233C17B7D143
:1002B0003877CC2B329595E6241FB14F0A000020E9
:1002C000410000C84200401C4620BCBE4CCA1B0E68
:1002D0005AAEC59D7400407A10F35A00A0724E18B1
:1002E000090010A5D4E80000E87648170000E40BE8
:1002F00054020000CA9A3B000000E1F505000080AE
:10030000969800000040420F000000A08601000007
:1003100000102700000000E8030000000064000057
:100320000000000A00000000000100000000002C96
:1003300076D888DC674F0823DFC1DFAE59E1B1B75B
:1003400096E5E3E453C63AE651997696E8E6C28428
:1003500026EB898C9B62ED407C6FFCEFBC9C9F4040
:10036000F2BAA56FA5F490055A2AF75C936B6CF965
:10037000676DC11BFCE0E40D47FEF520E6B500D03B
:10038000ED902E0300943577050080841E08000050
:10039000204E0A000000C80C333333330F986E121E
:1003A000831141EF8D2114893BE65516CFFEE6DB24
:1003B00018D1844B381BF77C1D901DA4BBE424206E
:1003C0003284725E228100C9F124ECA1E53D2763ED
:1003D00064696E6F70737578585B0041542B434DA0
:1003E00047533D222573220D0041542B5341504267
:1003F000523D25642C25640D0041542B4349504740
:10040000534D4C4F433D25642C25640D0031313054
:100410002E343137303032002D372E3637313237E7
:1004200032003131302E343137303032002D372E1A
:10043000363731323732003131302E3431373030C7
:1004400032002D372E363731323732004552524F77
:1004500052002C002C002B43495047534D4C4F4326
:100460003A20002B43495047534D4C4F433A20000C
:100470002B434D47533A20004552524F52004154AE
:100480002B47534E0D004143543D423032002B4325
:10049000474154543A20002C002C002B4353513A2E
:1004A00020002C22002C22002B435245473A2000EA
:1004B00041542B435245473F3B2B4353513B2B4326
:1004C000474154543F0D0000002F2C3A2B2D002F94
:1004D0002C3A2B2D002F2C3A2B2D002F2C3A2B2D84
:1004E000002F2C3A2B2D002F2C3A2B2D0041542B72
:1004F000435042573D25642C222573220D00415460
:100500002B435042533D222573220D0041542B436F
:100510005553443D25642C222573220D003D0A00CD
:1005200050484F4E450050484F4E45004143543DC2
:100530004230320052455345542047534D00002B62
:1005400043474154543A200041542B4347415454AB
:100550003F0D002C002B4353504E3A200041542BAA
:100560004353504E3F0D000041542B434E4D493DE7
:1005700025642C25640D0041542B435344483D25EC
:10058000640D002B435344483A200041542B4353FD
:1005900044483F0D002F2C3A2B2D002F2C3A2B2DA9
:1005A000002F2C3A2B2D002F2C3A2B2D002F2C3ADC
:1005B0002B2D002F2C3A2B2D002F2C3A2B002F2CDB
:1005C0003A2B0022002B43434C4B3A200041542B42
:1005D00043434C4B3F0D0022002B4350494E3A20E1
:1005E0000041542B4350494E3F0D00524541445960
:1005F00000353130303100696E646F73617467703B
:100600007273000000000000000000000000000005
:1006100000000000000000000000000000000000DA
:10062000000000003531303130004D324D494E541C
:1006300045524E455400000000000000000000003C
:1006400000000000000000000000000000000000AA
:1006500000000000000000353130313100696E7457
:1006600065726E657400000000000000000000006C
:10067000000000000000000000000000000000007A
:100680000000000000000000000035313038390063
:100690003367707273000000000000000000003338
:1006A00067707273000000000000000000003367F4
:1006B000707273000000000000000000003435324A
:1006C0003032006D332D776F726C640000000000D3
:1006D00000006D6D730000000000000000000000CD
:1006E000006D6D73000000000000000000000000BD
:1006F000343532303400762D696E7465726E6574EF
:1007000000000000000000000000000000000000E9
:1007100000000000000000000000000000000000D9
:100720000000003435323031006D2D7761700000EB
:1007300000000000000000006D6D7300000000006C
:10074000000000000000006D6D730000000000005C
:10075000000000000000343532303700696E7465E7
:10076000726E6574000000000000000000000000D0
:100770000000000000000000000000000000000079
:100780000000000000000000003532303031006908
:100790006E7465726E657400000000000000000059
:1007A0000000000000000000000000000000000049
:1007B0000000000000000000000000003532303072
:1007C0003000696E7465726E657400000000000090
:1007D0000000000000000000000000000000000019
:1007E00000000000000000000000000000000035D4
:1007F00032303138007777772E647461632E636FFF
:100800002E746800000000000000000000000000DE
:1008100000000000000000000000000000000000D8
:100820000000353230323300696E7465726E657463
:1008300000000000000000000000000000000000B8
:1008400000000000000000000000000000000000A8
:100850000000000000353230313500696E74657279
:100860006E65740000000000000000000000000041
:100870000000000000000000000000000000000078
:100880000000000000000000353230393900696E88
:100890007465726E6574000000000000006F726184
:1008A0006E67650000000000000000006F72616E5E
:1008B0006765000000000000000000353230303174
:1008C00000696E7465726E657400000000000000BF
:1008D0000000000000000000000000000000000018
:1008E00000000000000000000000000000003532A1
:1008F00030393900696E7465726E657400000000ED
:100900000000007472756500000000000000000027
:100910000000747275650000000000000000000017
:10092000003530323132006E657400000000000086
:1009300000000000000000000000000000000000B7
:1009400000000000000000000000000000000000A7
:10095000000000003530323137006E657400000051
:100960000000000000000000000000000000000087
:100970000000000000000000000000000000000077
:100980000000000000000035303231330063656C38
:10099000636F6D336700000000000000000000007E
:1009A0000000000000000000000000000000000047
:1009B0000000000000000000000035303231390036
:1009C00063656C636F6D336700000000000000001A
:1009D0000000000000000000000000000000000017
:1009E0000000000000000000000000000035303270
:1009F000313600646967696E6574000000000000AC
:100A000000000000000000000000000000000000E6
:100A100000000000000000000000000000000000D6
:100A20003530323138006D79336700000000000046
:100A300000000000000000000000000000000000B6
:100A400000000000000000000000000000000000A6
:100A5000000000353235303100652D696465617301
:100A60000000000000000000000000000000000086
:100A70000000000000000000000000000000000076
:100A8000000000000000353235303200652D696409
:100A9000656173000000000000000000000000001D
:100AA0000000000000000000000000000000000046
:100AB00000000000000000000035323530330073C4
:100AC000756E737572660000000000000000363518
:100AD00000000000000000000000000000757365C9
:100AE0007231323300000000000000003532353032
:100AF00035007368707064000000000000000000A2
:100B000000000000000000000000000000000000E5
:100B100000000000000000000000000000000035A0
:100B200032353036007368707064000000000000D9
:100B300000000000000000000000000000000000B5
:100B400000000000000000000000000000000000A5
:100B50000000353235303800736870706400000072
:100B60000000000000000000000000000000000085
:100B70000000000000000000000000000000000075
:100B80000000000000353235303700652D6964659E
:100B90006173000000000000000000000000000081
:100BA0000000000000000000000000000000000045
:100BB0000000000000000000343630303000636D6B
:100BC0006E657400000000000000000000000000DE
:100BD0000000000000000000000000000000000015
:100BE0000000000000000000000000343630303209
:100BF00000636D6E657400000000000000000000DE
:100C000000000000000000000000000000000000E4
:100C1000000000000000000000000000000034366A
:100C200030303700636D6E65740000000000000016
:100C300000000000000000000000000000000000B4
:100C400000000000000000000000000000000000A4
:100C500000343630303800636D6E6574000000007B
:100C60000000000000000000000000000000000084
:100C70000000000000000000000000000000000074
:100C800000000000343534313200636D6E6574004D
:100C90000000000000000000000000000000000054
:100CA0000000000000000000000000000000000044
:100CB00000000000000000343534313300636D6EF5
:100CC000657400000000000000000000000000004B
:100CD0000000000000000000000000000000000014
:100CE0000000000000000000000034363030330007
:100CF00063746E65740000000000000000000000D6
:100D000000000000000000000000000000000000E3
:100D10000000000000000000000000000034363039
:100D200030350063746E6574000000000000000040
:100D300000000000000000000000000000000000B3
:100D400000000000000000000000000000000000A3
:100D500034363031310063746E6574000000000079
:100D60000000000000000000000000000000000083
:100D70000000000000000000000000000000000073
:100D800000000034353431310063746E6574000046
:100D90000000000000000000000000000000000053
:100DA0000000000000000000000000000000000043
:100DB00000000000000034363030310033676E65CB
:100DC00074000000000000000000000000000000AF
:100DD0000000000000000000000000000000000013
:100DE00000000000000000000034363030360033D0
:100DF000676E657400000000000000000000000045
:100E000000000000000000000000000000000000E2
:100E10000000000000000000000000003436303008
:100E2000390033676E6574000000000000000000A8
:100E300000000000000000000000000000000000B2
:100E4000000000000000000000000000000000346E
:100E5000353430370033676E6574000000000000E1
:100E60000000000000000000000000000000000082
:100E70000000000000000000000000000000000072
:100E80000000000000000000636D6E65740000004B
:100E90000000000000000000000000000000000052
:100EA0000000000000000000000000000000000042
:100EB00000000000000000686F6C6F6772616D00D9
:100EC0003000686F6C6F6772616D00486F6C6F67A0
:100ED00072616D00532C256C640D00257300005762
:100EE00061726D696E672075700D0A00313146368A
:100EF00030363230003131463630363230002E0056
:100F000031392E30382E303100496E697420496EE7
:100F100070757400496E69742053656E736F72004A
:100F200030000000202020202025367320202020A3
:100F300020000020202020202020202020202533D9
:100F400064252525250020202020202536732020FB
:100F50002020200000002020202020253673202083
:100F600020202000000000444F000000202020200E
:100F70002025367320202020200043616C69627296
:100F80006174696F6E206661696C6564202100433D
:100F9000616C6962726174696F6E20646F6E652046
:100FA0000000000054696D656F7574000000005406
:100FB000696D656F75740000000025732054656DC0
:100FC000706572617475726500496E69742054654C
:100FD0006D7000000000257320444F0000000044A5
:100FE0004F205A65726F2043616C69627261746947
:100FF0006F6E00496E697420444F0041542B434C7E
:1010000054533D25640D00496E69742047534D00CB
:101010005365742042414841534100536574204553
:101020004E474C495348005365742049442022449C
:1010300045425547220000002020202025367320FD
:1010400020202020000020202020202020202020E0
:101050002025336425252525002020202020253625
:101060007320202020200000002020202020253672
:1010700073202020202000000000000020202020DD
:101080002025367320202020200000202020202032
:101090002020202020202533642525252500202000
:1010A0002020202536732020202020000000202032
:1010B000202020253673202020202000000000441E
:1010C000525900434C454152002A52450046414383
:1010D000544F52590D00580D004F5200442E4F2EC0
:1010E00000454300704800000020202020202536C5
:1010F00073202020202000002020202020202020DD
:10110000202020253364252525250020202020208F
:101110002536732020202020000000004C4F57006F
:101120004B2C25730D000000202020202025367335
:1011300020202020200000202020202020202020EF
:10114000202025336425252525002020202020254A
:101150003673202020202000484947480000002006
:101160002020202025367320202020200000202051
:1011700020202020202020202025336425252525FF
:101180000020202020202536732020202020002031
:10119000257320444F0020257320454300202573EC
:1011A000207048001F1C1F1E1F1E1F1F1E1F1E1FFA
:1011B000000000000000000000000000000000002F
:1011C000000000000000000000000000000000001F
:1011D000000000000000000000038000000000008C
:1011E0000000000000000000003FF00000000000D0
:1011F00000000000000000000000380000000000B7
:1012000000000000000000001FC0F000000000000F
:1012100000000000000000001FE780000000000048
:10122000000000000000000001CE000000000000EF
:101230000000000000000000070C03FFFFFE00009C
:101240000000000000000000060FFFF800FFE000B3
:10125000000000000000000003FF000000607C00B0
:1012600000000000000000000001004000600F00CE
:10127000000000000000000000018000006073809A
:1012800000000004000200000011800000203CE08B
:101290000038000E000700000038C0000060076042
:1012A0000038000E0007000000386000006001B048
:1012B0000038001F00070000007C3000006000D8EC
:1012C0000038001F00070000007C1C000060040CB8
:1012D0000038003B8007000000EE0F8000C00C6C5F
:1012E000003800718007000000C603F800C0180431
:1012F00000380071C007000001C7003FFD801806DC
:10130000003800E0C0070000018300001FC0300665
:10131000003800E0E0070000038380000070E00E6A
:10132000003800C060070000030180000019801A27
:10133000003801C0700700000701C000000700323C
:1013400000380380300700000600C000000600627D
:1013500000380380380700000E00E000000200C2E1
:1013600000380700180700001C006000000203821C
:10137000003807001C0700001C00700000030E026C
:1013800000700F001E0700003C0078000003FC07FF
:1013900060F00E000E07FFE0380038000003F00692
:1013A0007FC01C000F07FFF078003C000003000E18
:1013B0003F801C000787FFF070001C000003003E08
:1013C000000008000780000020001E00000301FC50
:1013D0000000000000000000000000000007FFFC0B
:1013E00000000000000000000001F8000007FE18E7
:1013F00000000000000000000007FF00000E0038A1
:101400000000000000000000000F0FC0000C007082
:101410000000000000000000000F01E0003E00E0BE
:10142000000000000000000000070070007F83C083
:1014300000000004200000000003E03807E3FF0084
:1014400000000004000000000001FFFFFFC0FE00DC
:1014500001C3C5CF22E211E211E03FFFFC1FF00003
:101460000224262423121212120007DBFFFF800041
:10147000020424242212121212001F387FF00000EE
:10148000020424242212121211C03C380000000071
:101490000204242422121212102070700000000096
:1014A00002242424221232123020E0E00000000046
:1014B00001C3C4232211D1E1D3C1C1C00000000087
:1014C0000000000000000000000187800000000014
:1014D000000000000000000000039E00000000006B
:1014E00000000000000000000003FC0000000000FD
:1014F00000000000000000000001F00000000000FB
:1015000000000000000000000000000000000000DB
:1015100000000000000000000000000000000000CB
:1015200000000000000000000000000000000000BB
:1015300000000000000000000000000000000000AB
:10154000000000000000000000000000000000009B
:10155000000000000000000000000000000000008B
:10156000000000000000000000000000000000007B
:10157000000000000000000000000000000000006B
:10158000000000000000000000000000000000005B
:10159000000000000000000000000000000000004B
:1015A000000000000000000000000000000000003B
:1015B000000000000007B9E000000000000FFFF08D
:1015C00000000000001FFFF000000000007FFFFE91
:1015D0000000000004FFFCFF0004200005FFFC7F6A
:1015E000C006280005FFF9FF80077C0005FF93FF78
:1015F000801B74000CFF47FF401BF48008FEEFFFC8
:10160000401BF640083FFFFC409BFE30181FFFF0D8
:10161000619FFF0E100FFFF0211FFFF0306339C0F4
:10162000221FFF9860F0000034FFFF9840F8000090
:10163000199FFFF8C0F00000199FFFF187700000AC
:1016400009FFFFF3870000000DFFFFFF37000000D8
:10165000067FFFFE3000000006FFFFFC00000000D8
:1016600003FFFFFE0000000001FFC7FE00000000B6
:1016700001FF83FE0000000001FF83FE0000000068
:1016800001FF83FE0000000001FF83FE0000000058
:1016900001FFC3FE0000000001FFE7FE00000000A4
:1016A00000FFFFFC0000000000FFFFFE0000000044
:1016B000007FFFFE00000000003FFFFF0000000071
:1016C000003FFFFF80000000003FFFFF80000000A0
:1016D000003FFFFF00000000001FFFFC00000000B3
:1016E0000003FFE00000000000001E0000000000FA
:1016F0001341325122266C6F676765645F61743DE8
:101700000031392E30382E303100267665727369FB
:101710006F6E3D002670686F6E655F6E756D6265F9
:10172000723D00266C6F6E6769747564653D0026B6
:101730006C617469747564653D00267369676E61D8
:101740006C5F7175616C6974793D00766F6C746162
:1017500067653D0000266D656173757265645F6144
:10176000743D00266170695F746F6B656E3D002685
:1017700070683D0026677261766974793D00267352
:10178000616C696E6974793D00267464733D00264E
:1017900065633D0026646F5F70657263656E743DBE
:1017A0000026646F3D0074656D70657261747572BA
:1017B000653D0000253034642D253032642D253000
:1017C000326454253032643A253032643A2530325E
:1017D000642563253032643A303000002664617439
:1017E000613D002674696D657374616D703D0026FE
:1017F000616464726573733D0026696D65693D00BF
:101800000055524C0068747470733A2F2F000D0A03
:10181000002B48545450524541443A000041542B47
:1018200048545450524541443D256C642C256C6409
:101830000D00004D697373696E6720646174610007
:101840000000002020204572726F72202533642131
:10185000202020000000002020204572726F72209E
:101860002533642120202000687474703A2F2F6182
:1018700070702E6A616C612E746563682F61706987
:101880002F6465766963652F6465766963655F6952
:101890006E626F78657300504F5354004163636507
:1018A00070743A206170706C69636174696F6E2F37
:1018B0006A736F6E004A414C4100687474703A2F2D
:1018C0002F6170702E6A616C612E746563682F6180
:1018D00070692F6465766963652F726669645F70ED
:1018E0006F6E64732F25732F6D756C74695F6D65F2
:1018F00061737572656D656E74733F00004163635B
:101900006570743A206170706C69636174696F6EA0
:101910002F6A736F6E004A414C4100687474703ACC
:101920002F2F6170702E6A616C612E746563682F51
:101930006170692F6465766963652F646576696394
:10194000655F6D756C74695F6C6F67733F696D651A
:10195000693D257300004163636570743A206170CE
:10196000706C69636174696F6E2F6A736F6E004A81
:10197000414C410042616861736100676167616C5D
:1019800000202020202020202020202020204D6FFB
:10199000686F6E206D656E67687562756E676B61E6
:1019A0006E207265662E2073656E736F7220210043
:1019B0004B616C6962726173692054656D700020BF
:1019C0004D6F686F6E20706572696B7361202020A7
:1019D00053656E736F72202573202100204B616C5C
:1019E000696272617369207048202020202020677E
:1019F0006167616C00204B616C6962726173692080
:101A000070482020202020206469626174616C6B22
:101A1000616E00616461007469616461002020206E
:101A200020202020202020202020202020202020B6
:101A3000446179612074656C616820202020202039
:101A400064696C657061736B616E002020202020DA
:101A5000202020202020202020202020204D656EC6
:101A6000676973692064617961002020202020204B
:101A7000202020202020202020204D6173756B6BBA
:101A8000616E206B6520202020206C61727574616E
:101A90006E20704820342F3130202020202020203C
:101AA00020202020202020202D3E004B656D6261EB
:101AB0006C69004B616C69627261736920444F000C
:101AC0004B616C696272617369204543004B616CC4
:101AD00069627261736920704800496E69742053AD
:101AE0004420476167616C00496E6974205344204B
:101AF0004C657061730056657273692025734300ED
:101B00005665727369202573004B616C696272615E
:101B100073692E2E2E004B6972696D202564206436
:101B20006174612074657274756E64613F0049442C
:101B300020746964616B2064696B656E616C690017
:101B40002020202020202020202020202020202095
:101B5000204D656E67617261686B616E206B6520F8
:101B600020207365727665722074616E706120202A
:101B70002020496E7465726E65742E2E2E00204BE7
:101B80006F6E656B736920676167616C2C2070658F
:101B900072696B73612070616B6574202020696EBF
:101BA0007465726E657420616E646100202020206F
:101BB0002020202020202020202020202047616776
:101BC000616C2120526573746172742020617461AC
:101BD00075206973692070756C7361002020202066
:101BE0002020202020202020202020202020446190
:101BF00074612074657274756E6461202074656C04
:101C0000616820646968617075732E00202020204F
:101C100020202020202020202020202020204D6552
:101C20006E676972696D2064617461202079616EEC
:101C3000672074657274756E64612E00204B616C50
:101C4000696272617369204F5250202020202073F6
:101C5000656C6573616900202020202020202020F1
:101C6000202020202020204D6173756B6B616E2039
:101C700070726F6265206B65206C61727574616E45
:101C8000203232352020202020202020202020201B
:101C900020202D3E0020204B616C696272617369C7
:101CA00020444F20202020202073656C65736169DB
:101CB0000020202020202020202020202020202044
:101CC0002042617361686B616E2053656E736F7241
:101CD0002C426961726B616E206469207564617267
:101CE0006120202020202020202020202020202DA6
:101CF0003E0020204B616C6962726173692045432C
:101D000020202020202073656C65736169002020ED
:101D100020202020202020202020202020204D6155
:101D200073756B6B616E2070726F626520206B65DE
:101D3000206C61727574616E203830303030202034
:101D40002020202020202020202020202D3E002088
:101D50002020202020202020202020202020204D56
:101D60006173756B6B616E2070726F626520206BA2
:101D700065206C61727574616E20313238383020A4
:101D8000202020202020202020202020202D3E0048
:101D90002020202020202020202020202020202043
:101DA0004B6572696E676B616E2070726F62652041
:101DB00045432020202020202020202020202020DB
:101DC00020202020202020202020202020202D3EE8
:101DD0000020204B616C6962726173692070482039
:101DE000202020202073656C65736169002020200D
:101DF000202020202020202020202020204D617322
:101E0000756B6B616E206B6520202020206C6172E9
:101E10007574616E207048203130202020202020F1
:101E200020202020202020202020202D3E002020A7
:101E300020202020202020202020202020204D6134
:101E400073756B6B616E206B6520202020206C61A8
:101E5000727574616E20704820372E30302020203B
:101E60002020202020202020202020202D3E005433
:101E7000656D70656C206B61727475002020202088
:101E800020202020202020202020202050656E6748
:101E90006972696D616E2064617461202020202068
:101EA00070656E75680020202020202020202020D2
:101EB0002020202020204D656E676972696D2064A6
:101EC0006174612E2E2E0020202020202020202032
:101ED000202020202020202020546168616E207561
:101EE0006E74756B2020206D656E676972696D2058
:101EF000646174612E2E2E002020202020202020BE
:101F0000202020202020202020202054656D706576
:101F10006C6B616E202020202020206B6172747514
:101F20002049442100202049736920626174657250
:101F300061692C20202070656E67756B7572616E0B
:101F4000206265722D20206C616E6A757420736149
:101F500061742020202020626174657261692063B1
:101F6000756B75702E00202020202020202020203E
:101F70002020202020202020205065726861746974
:101F8000616E212020202042617465726169206C9D
:101F9000656D61682E002020202020202020202038
:101FA0002020202020202020204D656E79616C614A
:101FB0006B616E2020202020202020202E2E2E2E0F
:101FC0000020202020202020202020202053656475
:101FD000616E67202020206D656D6174696B616E94
:101FE0002020202020202E2E2E2E002048617261DD
:101FF000702074756E6767752E2E0048617075735A
:10200000005961004B616C69627261736900496ECD
:102010006974004C616E6775616765006661696C23
:102020006564002020202020202020202020202047
:1020300020202020506C6561736520706C756720CE
:10204000696E207265662D74656D70657261747558
:102050007265202020202073656E736F722021002E
:1020600054656D702043616C6962726174696F6E52
:102070000020506C6561736520636865636B202583
:102080007320202053656E736F7220210020202062
:1020900020202020202020202020202020704820C8
:1020A00063616C6962726174696F6E202020202008
:1020B0002020202069732020202020202020202084
:1020C00020206661696C656400202020202020208B
:1020D00020202020202020202070482063616C696F
:1020E00062726174696F6E20202020202069732045
:1020F000202020202020202020202063616E636586
:102100006C6C6564006578697374006E6F6E650051
:1021100020202020202020202020202020202020BF
:102120002020202043686172676572277320202079
:10213000202020202072656C65617365640020207A
:1021400020202020506F7765722020202020202022
:1021500020202020206973202020202020202020E3
:102160002020206368617267696E6700202020204C
:102170002020202020202020202020205075742086
:1021800070726F626520696E746F20207048203411
:102190002F313020736F6C7574696F6E2D3E004265
:1021A00061636B00444F2043616C696272617469C2
:1021B0006F6E0045432043616C6962726174696FA0
:1021C0006E0070482043616C6962726174696F6E61
:1021D00000496E6974205344204661696C6564004F
:1021E000496E697420534420446574616368656472
:1021F00000566572202573430056657220257300D2
:102200002043616C6962726174696F6E2E2E2E00BC
:102210002053656E642025642064656C6179656473
:102220002020646174613F0043616E2774206964FB
:10223000656E74696679207468652049442063611D
:10224000726400202053656E6420746865206461A8
:10225000746120776974686F757420696E74657233
:102260006E65742020636F6E6E656374696F6E00B7
:10227000202020436F6E6E656374696F6E2020208E
:10228000206661696C65642C20636865636B20203F
:102290002020796F75722073696D206361726420EC
:1022A0002020202020637265646974002020202093
:1022B0004661696C6564212020202020726573745A
:1022C000617274206F7220636865636B20796F752B
:1022D000722073696D2063617264202020202020A9
:1022E0002063726564697400202020202020202053
:1022F000202020202020202044656C617965642006
:102300006461746120686173206265656E20646534
:102310006C6574656400202020202020202020206F
:102320002020202020202053656E64696E67206481
:10233000656C6179656420202020202064617461CF
:1023400000202020202020202020202020202020AD
:1023500020204F52502063616C6962726174696F12
:102360006E20202020697320646F6E6500205075F8
:10237000742070726F626520696E746F203235351B
:1023800020736F6C7574696F6E20002020202020F0
:10239000202020202020202020202020444F2063A7
:1023A000616C6962726174696F6E202020202069FF
:1023B0007320646F6E65002044616D7020746865E1
:1023C0002070726F62652C206C65742069742069BE
:1023D0006E20746865202020202020206169722DE5
:1023E0003E002020202020202020202020202020EF
:1023F00020202045432063616C6962726174696FBB
:102400006E2020202020697320646F6E65002020DC
:10241000202020202020202020202020202020508C
:1024200075742070726F626520696E746F20383029
:1024300030303020736F6C7574696F6E2D3E0020E4
:10244000202020202020202020202020202020208C
:102450005075742070726F626520696E746F2031E0
:102460003238303020736F6C7574696F6E2D3E009A
:102470004C6574207468652045432070726F6265F6
:10248000206F6E2064727920636F6E64692D202046
:1024900074696F6E00202020202020202020202022
:1024A00020202020202070482063616C69627261C6
:1024B00074696F6E2020202020697320646F6E6520
:1024C000002020202020202020202020202020202C
:1024D000205075742070726F626520696E746F2071
:1024E00020704820313020736F6C7574696F6E2DC9
:1024F0003E002020202020202020202020202020DE
:1025000020205075742070726F626520696E746F40
:1025100020207048203720736F6C7574696F6E2DA2
:102520003E005461702049442063617264002020A1
:10253000202020202020202020202020202020209B
:10254000446174612073656E64696E672020202089
:1025500071756575652069732066756C6C21002046
:102560002020202020202020202020202020205338
:10257000656E64696E6720746865206461746100CB
:10258000202020202020202020202020202020204B
:10259000486F6C6420746F2073656E642074686586
:1025A00020202020646174612E2E00202020202015
:1025B000202020202020202020202020506C656119
:1025C00073652074617020746865202020202020AD
:1025D000494420636172642100506C656173652019
:1025E00063686172676520746865206261747465F0
:1025F000727920666972737421002020202057614F
:10260000726E696E6721202020202020546865208A
:102610006261747465727920202020202020697303
:10262000206C6F77002020202020202020202020D8
:10263000202020202020205475726E696E67206F44
:102640006E2E2E2E00202020202020202020202032
:1026500020202020202053687574696E6720646FE5
:10266000776E2E2E2E0020506C6561736520776189
:1026700069742E2E2E0044656C657465005965736F
:102680000043616C6962726174696F6E00496E69C2
:102690007400253034642D253032642D25303264A9
:1026A00054253032643A253032643A25303264257C
:1026B00063253032643A3030008D2681267D2676BF
:1026C00026662645262526FA25D925AB2580255FB1
:1026D000252E252225F224C124952470243F240E82
:1026E00024E223B7238B236D2341231623E822AC56
:1026F0002270224322282210220022F921F121E017
:1027000021D121C221B321A4219F216C213E21107E
:10271000210B210521C9208D207120602023201C40
:102720002013200000000000000000000000000056
:102730000000000000000000000000000000000099
:102740000000000000000000000000000000000089
:102750000000000000000000000000000000000079
:102760000000000000000000000000000000000069
:102770000000000000000000000000000000000059
:10278000000E2004200120FB1FEB1FC11F961F66B7
:102790001F251FF81EC71EA61E7C1E6F1E2E1EEDB7
:1027A0001DD11D901D4F1D0E1DF21CB11C951C57F7
:1027B0001C3C1C0C1CDC1BAC1B7E1B401B2E1B166C
:1027C0001B091B001BF61AE81ADA1ACD1AC01AB335
:1027D0001AAB1A6A1A4B1A1D1A171A131AF519DCB2
:1027E00019BF19B01981197B197419000000000074
:1027F00000000000000000000000000000000000D9
:1028000000000000000000000000000000000000C8
:1028100000000000000000000000000000000000B8
:1028200000000000000000000000000000000000A8
:102830000000000000000000000000000000000098
:1028400000000000000000000024262B2C2F3A3B43
:102850003D3F40203C3E23257B7D7C7E5B5D6000D0
:1028600030313233343536373839414243444546C6
:10287000000A4C4F473D000A50484F4E453D000A64
:102880004C4F4E4749545544453D000A4C4154492C
:10289000545544453D000A5349474E414C3D000ABA
:1028A000564F4C544147453D0031392E30382E307B
:1028B00031000A4649524D574152453D000A494DA3
:1028C00045493D00434F44453D004143543D4A3056
:1028D000300A000A50483D000A473D000A53414C67
:1028E0003D000A5444533D000A45433D000A444F0D
:1028F0003D000A444F5F50455243454E543D000A47
:10290000543D000A54494D455354414D503D000A31
:10291000494D45493D00434F44453D004143543DE9
:102920004A30310A00005EBCE2613FDD83C29C7E1A
:1029300020A3FD1F41009D23BE46DB65F88C11AF2F
:1029400032CA57E974FFE0FFD1AFFF32FFD0FFFE7C
:10295000FFE0FFD1AEFFD0FFFEFFE0FFD11000FF90
:10296000FEFFD0FFE0FFC1FFD1AED580A83FD3006E
:10297000408D142000A1C8DA1281CFD9F1DB402E9E
:10298000A4A6AFFFD0FFFE636C65617252656365FC
:1029900069766564427566666572004552524F52AB
:1029A00000506F77657220446F776E00506F7765C7
:1029B0007220446F776E00524459004552524F5274
:1029C000004F4B0D004F4B00555243005265737042
:1029D0006F6E73653A20004E6F20726573706F6E74
:1029E00073650000002100240027002A002D00301C
:1029F00000330001010000040107010A0100002268
:102A000000250028002B002E0031003400020100B8
:102A100000050108010B0101060D00FE0901660217
:102A2000D620FFFE0BFE0AFE0D0060221969808091
:102A300080808080800080183363A0A0A003576747
:102A40005050F850F850500259692078A0A07028D2
:102A500028F02002596948A85010204050A8900240
:102A6000586840A0A040A098906828136380808098
:102A7000113B6B2040408080808080404020113B93
:102A80006B8040402020202020404080065565205B
:102A9000A870A8200455652020F820201133636019
:102AA0004080065161F811336340E04002596908E3
:102AB0000810102040408080025969205088888882
:102AC000888850200259692060A02020202020F80A
:102AD0000259697088880810204080F8025969F806
:102AE0000810207008088870025969101030505082
:102AF00090F81010025969F88080B0C808088870F2
:102B000002596970888080F088888870025969F855
:102B10000810102020404040025969708888887051
:102B20008888887002596970888888780808887051
:102B300011386840E040000040E04011386840E053
:102B40004000006040800259690810204080402009
:102B50001008045464F80000F802596980402010FD
:102B600008102040800259697088880810202000D1
:102B70002002596970888898A8A8B080780259699D
:102B80002050888888F8888888025969F048484821
:102B900070484848F0025969708880808080808839
:102BA00070025969F048484848484848F002596955
:102BB000F8808080F0808080F8025969F8808080F9
:102BC000F080808080025969708880808098888831
:102BD0007002596988888888F888888888123969D5
:102BE000E040404040404040E00259693810101039
:102BF0001010109060025969888890A0C0A0908839
:102C0000880259698080808080808080F8025969BC
:102C10008888D8A8A88888888802596988C8C8A8D8
:102C2000A8989888880259697088888888888888D0
:102C300070025969F0888888F080808080015A6A23
:102C400070888888888888A87008025969F0888800
:102C500088F0A09088880259697088808070080880
:102C60008870025969F82020202020202020025955
:102C700069888888888888888870025969888888DF
:102C800088505050202002596988888888A8A8A8B0
:102C9000A85002596988885050205050888802599D
:102CA00069888850502020202020025969F8081097
:102CB0001020404080F8113B6BE080808080808055
:102CC000808080E002596980804040201010080810
:102CD000113B6BE0202020202020202020E0085302
:102CE00063205088015161F82A22628040025666B2
:102CF000700878889868025969808080F088888890
:102D000088F00256667088808088700259690808C9
:102D1000087888888888780256667088F880887075
:102D200002596930484040F04040404000586870C7
:102D300088888878088870025969808080B0C8883F
:102D40008888881238684000C040404040E0004A0F
:102D50006A10003010101010909060025969808045
:102D60008090A0C0A09088123969C0404040404087
:102D70004040E0025666D0A8A8A8A888025666B0CF
:102D8000C888888888025666708888888870005845
:102D900068F0888888F08080800058687888888803
:102DA00078080808025666B0C8808080800256669F
:102DB0007088601088700258684040F04040404879
:102DC000300256668888888898680256668888889F
:102DD0005050200256668888A8A8A85002566688D7
:102DE0005020205088005868888888986808887023
:102DF000025666F810204080F8015B6B18202020F6
:102E000020C02020202018221969808080808080A6
:102E1000808080015B6BC020202020182020202093
:102E2000C008536348A890FFFFFFFFFFFFFFFFFFAD
:102E3000FFFFFFFFFFFFFFFFFFFFFFFFFFFFFFFFA2
:102E4000FFFFFFFFFFFFFFFF0D00602219698000F9
:102E5000808080808080800358682070A8A0A0A80F
:102E6000702002596930484040E0404048B0035665
:102E70006688705050708802596988885050F820D0
:102E8000F820202219698080808000808080801254
:102E90004A6A609080609090601090601A3262A0E0
:102EA000A00359697088A8D8C8D8A8887004576743
:102EB000700878887800F80356662850A0A050283B
:102EC000045363F80808163161E00359697088E813
:102ED000D8D8E8D888700A5161F817446460909097
:102EE000600357672020F8202000F807356540A0D0
:102EF0002040E007356540A04020C02A2262408083
:102F00000058688888888898E8808002596978E83D
:102F1000E8E8E868282828262161C020226240804D
:102F200007356540C04040E0045767708888887066
:102F300000F8035666A050282850A0025A6A40C0E4
:102F40004040E00818283808025A6A40C04040E073
:102F50001028081038025A6A40A04020A0481828BB
:102F60003808025969200020204080888870025A61
:102F70006A40200020508888F88888025A6A102009
:102F80000020508888F88888025A6A30480020500B
:102F90008888F88888025A6A28500020508888F863
:102FA0008888025A6A50500020508888F888880221
:102FB0005A6A20502020508888F888880259695819
:102FC000A0A0A0B0E0A0A0B8005B6B70888080805B
:102FD000808088702040025A6A402000F88080F08B
:102FE0008080F8025A6A102000F88080F08080F813
:102FF000025A6A304800F88080F08080F8025A6AED
:10300000505000F88080F08080F8123A6A804000CA
:10301000E04040404040E0123A6A204000E040403A
:10302000404040E0124A6A609000E040404040402A
:10303000E0123A6AA0A000E04040404040E002595F
:1030400069F0484848E8484848F0025A6A28500061
:103050008888C8A8988888025A6A402000708888A2
:1030600088888870025A6A1020007088888888884A
:1030700070025A6A30480070888888888870025ABE
:103080006A28500070888888888870025A6A505070
:10309000007088888888887003556588502050881B
:1030A000015B6B08709898A8A8A8C8C87080025ADD
:1030B0006A40200088888888888870025A6A1020B0
:1030C0000088888888888870025A6A304800888812
:1030D0008888888870025A6A505000888888888852
:1030E0008870025A6A102000888850202020200210
:1030F000596980F0888888F08080800259696090E2
:1031000090A0A0908888B00259694020007008788B
:1031100088986802596910200070087888986802B9
:1031200059693048007008788898680259692850B1
:1031300000700878889868025969505000700878C3
:10314000889868025A6A3048300070087888986811
:10315000025666702870A0A8500058687088808059
:10316000887020400259694020007088F88088707B
:103170000259691020007088F880887002596930FF
:1031800048007088F8808870025969505000708833
:10319000F8808870123969804000C040404040E0AB
:1031A000123969204000C040404040E01249696047
:1031B0009000C040404040E0123969A0A000C040EB
:1031C000404040E0025A6A50206010708888888829
:1031D00070025969285000B0C888888888025969E7
:1031E000402000708888888870025969102000701B
:1031F0008888888870025969304800708888888873
:10320000700259692850007088888888700259694E
:10321000505000708888888870035767202000F815
:10322000002020015868087098A8A8C8708002592A
:1032300069402000888888889868025969102000B1
:103240008888888898680259693048008888888802
:103250009868025969505000888888889868005B8F
:103260006B1020008888889868088870005A6A80E7
:1032700080B0C88888C8B08080005B6B50500088E0
:10328000888898680888700000200023002600299C
:10329000002C002F0032000001000003010601098C
:1032A0000105050505070508080808020202020ACB
:1032B0000A080804040404010101010101010103D9
:1032C00003030303030303040707070C0C0C0C0C94
:1032D0000C0C0C0202020206060606060606060B87
:1032E0000B0B0B0B0B0B0B010210202008081020FE
:1032F0004010204080020102010804020101020482
:103300000810204080804020100804020180040240
:103310000180402010080402010804020101020497
:10332000081020408001020408102040804E6F00E9
:103330005965730041726520796F752073757265E8
:103340003F0001060C00FE070135026B207FFE0ADC
:10335000FE08FE0C0060221767808080808000805D
:10336000173363A0A0A002566650F85050F85001E1
:1033700059692070A8A07028A87020025767C8C893
:10338000102040989802576740A0A040A890682756
:1033900013638080801139692040408080804040E4
:1033A000201139698040402020204040800257672A
:1033B00020A8702070A8200355652020F820200147
:1033C00033636060C0055161F8122262C0C00257C9
:1033D00067081010204040801247676090909090DE
:1033E000906012376740C040404040E0025767702D
:1033F0008808102040F8025767F8081030088870D5
:1034000002576710305090F81010025767F880F09C
:1034100008088870025767304080F088887002572B
:1034200067F808101020202002576770888870887D
:10343000887002576770888878081060122565C008
:10344000C000C0C00136666060006060C0133565B2
:103450002040804020045363F800F8133565804015
:103460002040800257677088102020002002576794
:103470007088B8A8B88070025767708888F8888804
:1034800088025767F04848704848F00257677088CC
:103490008080808870025767F04848484848F002AA
:1034A0005767F88080F08080F8025767F88080F0D6
:1034B0008080800257677088808098887002576784
:1034C000888888F8888888123767E0404040404004
:1034D000E00257673810101010906002576788900C
:1034E000A0C0A09088025767808080808080F8020A
:1034F000576788D8A8888888880257678888C8A8A6
:10350000988888025767708888888888700257670B
:10351000F08888F080808002576770888888A8903B
:1035200068025767F08888F0A09088025767708813
:103530008070088870025767F82020202020200221
:10354000576788888888888870025767888888883D
:1035500050502002576788888888A8A8500257676B
:1035600088885020508888025767888850202020FB
:1035700020025767F80810204080F8113969E08070
:10358000808080808080E00257678040402010105B
:1035900008113969E020202020202020E007536313
:1035A000205088005161F817336380402002556530
:1035B00070087888780257678080F0888888F002E1
:1035C00055657088808870025767080878888888F1
:1035D000780255657088F08070025767304840E087
:1035E00040404000576770888888780870025767A5
:1035F0008080F0888888881237674000C04040404B
:10360000E0104969100030101010109060025767E8
:1036100080808890E09088123767C04040404040EA
:10362000E0025565D0A8A8A8A8025565B0C888884A
:10363000880255657088888870005767F088888888
:10364000F080800057677888888878080802556578
:10365000B0C880808002556578807008F002576796
:103660002020F82020201802556588888898680254
:10367000556588888850200255658888A8A850021A
:1036800055658850205088005767888888502040AA
:1036900080025565F8102040F811396920404040FB
:1036A0008040404020211969808080808080808017
:1036B000801139698040404020404040800453637D
:1036C00048A890FF00101000FE0A06A7089500FF0A
:1036D000FE0EFE0BFE1010201000FEAAAA000180B4
:1036E00000000180004A51EA505A51C99E000180F1
:1036F00000000180000001800055551010201000CE
:10370000FEAAAA00018000000180003993C2523253
:103710005F8A527193800000018000000180005593
:10372000551010201000FEAAAA00018000000180A0
:10373000003BA5C124311989247125800000018036
:10374000000001800055551010201000FEAAAA00AC
:10375000018000000180007BA5C1247919C1247972
:1037600025800000018000000180005555101020C8
:103770001000FEAAAA000180000001800079BFC2EB
:10378000487A49C2487989800000018000000180A0
:103790000055551010201000FEAAAA00018000005C
:1037A0000180007A4DC2527B53C2D67A4F8000000E
:1037B0000180000001800055551010201000FEAA65
:1037C000AA000180000001800031A5CA287A31CA10
:1037D0002849A58000000180000001800055551097
:1037E00010201000FEAAAA000180000001800073D2
:1037F000D1CA1073D1CA1073DF80000001800000AD
:1038000001800055551010201000FEAAAA0001806A
:1038100000000180001E3991401E3191081E718008
:10382000000001800000018000555510102010009C
:10383000FEAAAA000180000001800022F9A2203E19
:1038400021A220222180000001800000018000557B
:10385000551010201000FEAAAA000180000001806F
:103860000020F9A08020F9A0803E81800000018026
:10387000000001800055551010201000FEAAAA007B
:103880000180000001800022F9A22022219420085A
:10389000218000000180000001800055551010209B
:1038A0001000FEAAAA00018000000180003EF9A0DD
:1038B000803EF9A08020818000000180000001800E
:1038C0000055551010201000FEAAAA00018000002B
:1038D0000180001EF1A08820F1A0901E89800000C8
:1038E0000180000001800055551010201000FEAA34
:1038F000AA00018000000180001E71A0881C89823E
:10390000883C718000000180000001800055551046
:1039100010201000FEAAAA00018000000180001EF5
:10392000F9A0201C2182203CF980000001800000C9
:1039300001800055551010201000FEAAAA00018039
:103940000000018000391DA510251DA51039DD805E
:10395000000001800000018000555510102010006B
:10396000FEAAAA00018000000180007189CA184ADD
:1039700009CA08719D800000018000000180005587
:10398000551010201000FEAAAA000180000001803E
:10399000007199CA044A09CA10719D800000018013
:1039A000000001800055551010201000FEAAAA004A
:1039B000018000000180007199CA044A19CA04718B
:1039C00099800000018000000180005555101020F2
:1039D0001000FEAAAA00018000000180007185CAC3
:1039E0000C4A15CA1C71858000000180000001800E
:1039F0000055551010201000FEAAAA0001800000FA
:103A00000180004993EA546A59DBD44A538000008C
:103A10000180000001800055551010201000FEAA02
:103A2000AA00018000000180003453C29A31178936
:103A300012711380000001800000018000555510B4
:103A400010201000FEAAAA00018000000180007B67
:103A5000B9C1247939C1247939800000018000007E
:103A600001800055551010201000FEAAAA00018008
:103A700000000180003325C4B447ADC4A434A58040
:103A8000000001800000018000555510102010003A
:103A9000FEAAAA00018000000180003E89A0D83E55
:103AA000A9A0883E898000000180000001800055A7
:103AB000551010201000FEAAAA000180000001800D
:103AC000003A5DC252325D8A52719D8000000180D1
:103AD000000001800055551010201000FEAAAA0019
:103AE0000180000001800079CFC2107991C0507B25
:103AF0008F800000018000000180005555101020CB
:103B00001000FEAAAA00018000000180001E719032
:103B1000801E61901010E180000001800000018093
:103B20000055551010201000FEAAAA0001800000C8
:103B30000180000E719080166192100EE1800000ED
:103B40000180000001800055551010201000FEAAD1
:103B5000AA00018000000180001C7192801C619409
:103B60001012E18000000180000001800055551016
:103B700010201000FEAAAA0001800000018000129F
:103B8000719280126192100CE180000001800000AF
:103B9000018000555500000008000E010A0A0804C3
:103BA000008080808080808000808005040408027E
:103BB0000888888888060A0A080100242424FC480A
:103BC00048FC909090070A0A080100107C929070BF
:103BD0001C12927C10070A0A080100629494681073
:103BE000102C52528C070A0A08010038444428302D
:103BF000528A848C72010404080408808080800347
:103C00000C0C0803FF204040808080808080404072
:103C100020030C0C0802FF804040202020202020A0
:103C20004040800707070801011092543854921051
:103C3000070707080101101010FE101010020404FD
:103C40000803FEC0404080040101080204F00202A3
:103C500002080300C0C0060A0A0801000404081094
:103C6000102020408080060A0A0801003048848421
:103C7000848484844830050A0A0802002060A02059
:103C80002020202020F8060A0A08010078848404F5
:103C90001820408080FC060A0A0801007884840409
:103CA000380404848478060A0A08010008182848A1
:103CB0008888FC080808060A0A080100FC80808041
:103CC000F80404048478060A0A0801003840808059
:103CD000F88484848478060A0A080100FC04040835
:103CE000080810101010060A0A080100788484845D
:103CF000788484848478060A0A080100788484849D
:103D00007C0404040870020707080301C0C0000017
:103D100000C0C00209090803FFC0C0000000C04085
:103D2000408005090908020008102040804020104A
:103D300008060505080102FC000000FC0509090849
:103D40000100804020100810204080060A0A080167
:103D50000078848404081010001010060A0A080174
:103D600000384494ACA4A4A49C403C060A0A080170
:103D7000003048488484FC84848484060A0A08014C
:103D800000F8848484F884848484F8060A0A08018C
:103D90000078848480808080848478060A0A080100
:103DA00000F08884848484848488F0060A0A0801E8
:103DB00000FC808080F880808080FC060A0A080170
:103DC00000FC808080F88080808080060A0A0801DC
:103DD0000078848480809C84848C74060A0A08019C
:103DE0000084848484FC8484848484050A0A080210
:103DF00000F82020202020202020F8070A0A0801AF
:103E0000003E080808080808888870060A0A0801A1
:103E100000848890A0C0C0A0908884060A0A080187
:103E200000808080808080808080FC060A0A0801F3
:103E3000008484CCCCB4B484848484060A0A080147
:103E40000084C4C4A4A494948C8C84060A0A080137
:103E50000078848484848484848478060A0A08012F
:103E600000F8848484F88080808080070B0B080130
:103E7000FF78848484848484B4CC7806060A0A0893
:103E80000100F8848484F89088888484060A0A08EB
:103E9000010078848480601804848478070A0A0802
:103EA0000100FE101010101010101010060A0A0861
:103EB000010084848484848484848478070A0A08C2
:103EC000010082828244444428281010060A0A080D
:103ED000010084848484B4B4CCCC8484060A0A08A7
:103EE000010084844848303048488484070A0A081E
:103EF000010082824444281010101010060A0A089B
:103F00000100FC0404081020408080FC030C0C0815
:103F100004FFE080808080808080808080E0060ACE
:103F20000A08010080804020201010080404030CBF
:103F30000C0801FFE020202020202020202020E06D
:103F40000603030801093048840701010801FFFE48
:103F500003030308020A80402006080808010078CD
:103F600084047C84848C74060B0B080100808080A0
:103F7000B8C484848484C4B806080808010078841E
:103F8000808080808478060B0B0801000404047490
:103F90008C848484848C74060808080100788484E6
:103FA000FC80808478050B0B08010018202020F885
:103FB000202020202020060B0B0801FE0474888896
:103FC00088704078848478060B0B0801008080801C
:103FD000B8C4848484848484050B0B0802002020E8
:103FE0000060202020202020F8050D0D0801FE088B
:103FF000080018080808080808089060060B0B0855
:1040000001008080808890A0C0A0908884050B0B60
:1040100008020060202020202020202020F807080F
:1040200008080100EC929292929292920608080877
:104030000100B8C4848484848484060808080100CC
:104040007884848484848478060A0A0801FEB8C4CB
:1040500084848484C4B88080060A0A0801FE748CB3
:10406000848484848C740404060808080100B8C49D
:104070008480808080800608080801007884806041
:1040800018048478050A0A080100202020F820205E
:104090002020201806080808010084848484848471
:1040A0008C7406080808010084848448484830302D
:1040B000070808080100829292929292926C060878
:1040C000080801008484483030488484060A0A08BD
:1040D00001FE84848484844C34040478060808082F
:1040E0000100FC040810204080FC030C0C0803FFB6
:1040F000608080404080804040808060010E0E08DB
:1041000004FE8080808080808080808080808080AD
:10411000030C0C0802FFC02020404020204040201B
:1041200020C007030308010862928C1010201000C1
:10413000FEAAAA000180000001800073D1CA104BC2
:10414000D1CA1073DF80000001800000018000559B
:10415000551010201000FEAAAA0001800000018066
:1041600000719DCA5273D3C252425D80000001802B
:10417000000001800055551010201000FEAAAA0072
:1041800001800000018000499DCA527A5DCA5049F1
:104190009180000001800000018000555510102022
:1041A0001000FEAAAA00018000000180007393CADB
:1041B00052739FCA127213800000018000000180B8
:1041C0000055551010201000FEAAAA000180000022
:1041D0000180004B93EA525B9FCA524B93800000D0
:1041E0000180000001800055551010201000FEAA2B
:1041F000AA000180000001800074B9A6A425A5A42E
:10420000A474B980000001800000018000555510A1
:1042100010201000FEAAAA00018000000180004BBF
:10422000D1EA105BD1CA104BDF8000000180000092
:1042300001800055551010201000FEAAAA00018030
:10424000000001800039CDC212319F8852739380E3
:104250000000018000000180005555101020100062
:10426000FEAAAA000180000001800079CDC2127967
:104270009FC0527B938000000180000001800055A8
:10428000551010201000FEAAAA0001800000018035
:10429000004B9DC9207919C904493980000001806B
:1042A000000001800055551010201000FEAAAA0041
:1042B0000180000001800025DDA4843C85A48424C5
:1042C00099800000018000000180005555101020E9
:1042D0001000FEAAAA000180000001800045CDC4A4
:1042E000904489A88410998000000180000001801A
:1042F0000055551010201000FEAAAA0001800000F1
:10430000018000721DCA127213C21243DD800000C8
:104310000180000001800055551010201000FEAAF9
:10432000AA00018000000180007213CA127213C239
:104330001243CD800000018000000180005555101F
:1043400010201000FEAAAA00018000000180000ECB
:104350002189200E218A200921800000018000008F
:1043600001800055551010201000FEAAAA000180FF
:10437000000001800039DDC202318D8850739F80BA
:104380000000018000000180005555101020100031
:10439000FEAAAA000180000001800039DDC20231BE
:1043A0008D8842739D8000000180000001800055CF
:1043B000551010201000FEAAAA0001800000018004
:1043C0000071CFCA104A0DCA0271DD800000018061
:1043D000000001800055551010201000FEAAAA0010
:1043E000018000000180007245CA4C7245C2444100
:1043F0008F800000018000000180005555101020C2
:104400001000FEAAAA0001800000018000725DCAAF
:1044100042724DC250419F80000001800000018027
:104420000055551010201000FEAAAA0001800000BF
:104430000180003B9DC12031198904713980000041
:104440000180000001800055551010201000FEAAC8
:10445000AA000180000001800039D3C212421FC2AD
:104460001239D380000001800000018000555510F2
:1044700010201000FEAAAA00018000000180002286
:1044800089B6882AA9A2D82289800000018000006C
:1044900001800055551010201000FEAAAA000180CE
:1044A00000000180003B8DC252339F8A127213803C
:1044B0000000018000000180005555101020100000
:1044C000FEAAAA00018000000180007B8DC2527B01
:1044D0009FC2127A13800000018000000180005505
:1044E000551010201000FEAAAA00018000000180D3
:1044F00000398FC250324D8A42719D800000018088
:10450000000001800055551010201000FEAAAA00DE
:1045100001800000018000339BC42225A394A26384
:104520009B80000001800000018000555510102084
:104530001000FEAAAA000180000001800039DDC23F
:104540000832098A0871DD800000018000000180C6
:104550000055551010201000FEAAAA00018000008E
:1045600001800039DDC2084189C0483B9D800000C0
:104570000180000001800055551010201000FEAA97
:10458000AA00018000000180000EF990200C218219
:10459000201C218000000180000001800055551082
:1045A00010201000FEAAAA00018000000180003146
:1045B000CFCA104991C850338F800000018000009D
:1045C00001800055551010201000FEAAAA0001809D
:1045D00000000180001C8992D81CA9908810898055
:1045E00000000180000001800055551010201000CF
:1045F000FEAAAA0001800000018000338FCA507B10
:1046000091CA104A0F80000001800000018000550F
:104610005500000008000E010A0A0804008080000E
:1046200080808080808080070A0A08010010107C4A
:10463000929090927C1010070A0A0801001C20201A
:1046400020F82020207CC206080808010184487850
:104650004848784884070A0A08010082442810FE66
:1046600010FE101010010A0A0804008080808000EB
:104670000080808080060A0A08010078848078849F
:10468000847804847804020208020C9090080A0AD4
:104690000800003C4299A5A1A1A599423C05070745
:1046A000080205700878887800F8060909080100F2
:1046B000242448489048482424060404080100FCA7
:1046C0000404041010201000FEAAAA000180003A81
:1046D00063C25433C98A48724980000001800003D4
:1046E000C18000000180005555080A0A0800003CFE
:1046F00042B9A5A5B9A9A5423C06010108010BFCD8
:1047000003040408020A40A0A040070909080101A7
:10471000101010FE10101000FE05070708020570AB
:104720008808708080F805070708020570880870FF
:1047300008887003030308030A204080080A0A0857
:1047400000FE42424242424266594080060C0C083A
:1047500001FF7CF4F4F4F47414141414141C020215
:1047600002080304C0C00302020802FE20C00307BF
:10477000070802052060A020202020050707080266
:1047800005708888887000F8060909080100909073
:1047900048482448489090060A0A08010044C44842
:1047A0005050242C549C84060A0A08010044C44832
:1047B0005050283444889C060A0A080100C4244842
:1047C00030D0242C549C84060A0A080100101000E2
:1047D00010106084848478060E0E080100601800B2
:1047E000003048488484FC84848484060E0E0801CA
:1047F00000186000003048488484FC848484840667
:104800000E0E080100304800003048488484FC84C3
:10481000848484060E0E0801006498000030484825
:104820008484FC84848484060E0E080100484800B9
:10483000003048488484FC84848484060E0E080179
:1048400000304830003048488484FC8484848407E5
:104850000A0A0801003E509090FE909090909E06AB
:104860000C0C0801FE788484808080808484781019
:1048700060060E0E08010060180000FC808080F8C1
:1048800080808080FC060E0E08010018600000FC8D
:10489000808080F880808080FC060E0E0801003049
:1048A000480000FC808080F880808080FC060E0E2E
:1048B00008010048480000FC808080F880808080EB
:1048C000FC050E0E08020060180000F820202020D1
:1048D00020202020F8050E0E08020030C00000F84D
:1048E0002020202020202020F8050E0E0802006045
:1048F000900000F82020202020202020F8050E0E17
:1049000008020090900000F8202020202020202085
:10491000F8070A0A08000078444242F24242424440
:1049200078060E0E0801006498000084C4C4A4A494
:1049300094948C8C84060E0E080100601800007898
:10494000848484848484848478060E0E080100188C
:1049500060000078848484848484848478060E0EC5
:10496000080100304800007884848484848484842E
:1049700078060E0E08010064980000788484848410
:104980008484848478060E0E08010048480000786C
:1049900084848484848484847806050508010284E0
:1049A00048304884060C0C0801FF0474888C9494E9
:1049B000A4A4C444B880060E0E08010060180000CC
:1049C00084848484848484848478060E0E080100A0
:1049D0001860000084848484848484848478060E2F
:1049E0000E08010030480000848484848484848418
:1049F0008478060E0E0801004848000084848484F0
:104A0000848484848478070E0E08010018600000F6
:104A100082824444281010101010060B0B0801006D
:104A20008080F088848488F0808080060A0A0801EB
:104A30000070888890B0888484A498060C0C0801C3
:104A400000601800007884047C84848C74060C0C4C
:104A5000080100186000007884047C84848C74064B
:104A60000C0C080100304800007884047C84848C9D
:104A700074060C0C080100649800007884047C849F
:104A8000848C74060C0C08010048480000788404EB
:104A90007C84848C74060D0D0801003048300000C1
:104AA0007884047C84848C740708080801007C9254
:104AB000127E9090927C060A0A0801FE788480801B
:104AC000808084781060060C0C08010060180000DB
:104AD000788484FC80808478060C0C0801001860BF
:104AE0000000788484FC80808478060C0C08010027
:104AF00030480000788484FC80808478060C0C08A0
:104B0000010048480000788484FC80808478050C8B
:104B10000C080200C030000060202020202020F877
:104B2000050C0C08020030C000006020202020206E
:104B300020F8050C0C080200609000006020202086
:104B4000202020F8050C0C08020090900000602046
:104B50002020202020F8060C0C08010064182844AE
:104B6000047C848484848478060C0C080100649896
:104B70000000B8C4848484848484060C0C0801007A
:104B8000601800007884848484848478060C0C087F
:104B90000100186000007884848484848478060C82
:104BA0000C08010030480000788484848484847870
:104BB000060C0C08010064980000788484848484C6
:104BC0008478060C0C08010048480000788484842E
:104BD00084848478060707080101300000FC000087
:104BE00030060A0A0801FF04788C9494A4A4C478BF
:104BF00080060C0C08010060180000848484848402
:104C0000848C74060C0C08010018600000848484F5
:104C10008484848C74060C0C0801003048000084E5
:104C200084848484848C74060C0C08010048480039
:104C3000008484848484848C74060E0E0801FE181B
:104C400060000084848484844C34040478050C0C53
:104C50000802FE8080F088888890A0C0808080064E
:104C60000E0E0801FE4848000084848484844C347D
:104C700004047801060C00FE070135026B20FFFEDC
:104C80000AFE08FE0C00602217678080808080008A
:104C900080173363A0A0A002566650F85050F85019
:104CA0000159692070A8A07028A87020025767C811
:104CB000C8102040989802576740A0A040A890686C
:104CC00027136380808011396920404080808040B4
:104CD0004020113969804040202020404080025708
:104CE0006720A8702070A8200355652020F8202098
:104CF0000133636060C0055161F8122262C0C002D6
:104D000057670810102040408012476760909090CD
:104D100090906012376740C040404040E0025767C3
:104D2000708808102040F8025767F808103008888B
:104D30007002576710305090F81010025767F880D3
:104D4000F008088870025767304080F08888700249
:104D50005767F80810102020200257677088887065
:104D600088887002576770888878081060122565F7
:104D7000C0C000C0C00136666060006060C013350E
:104D8000652040804020045363F800F813356580A7
:104D90004020408002576770881020200020025772
:104DA000677088B8A8B88070025767708888F888DC
:104DB0008888025767F04848704848F00257677083
:104DC000888080808870025767F04848484848F0DB
:104DD000025767F88080F08080F8025767F880807B
:104DE000F0808080025767708880809888700257B2
:104DF00067888888F8888888123767E04040404094
:104E000040E0025767381010101090600257678812
:104E100090A0C0A09088025767808080808080F832
:104E200002576788D8A8888888880257678888C802
:104E3000A898888802576770888888888870025781
:104E400067F08888F080808002576770888888A81B
:104E50009068025767F08888F0A0908802576770C2
:104E6000888070088870025767F820202020202052
:104E7000025767888888888888700257678888887A
:104E80008850502002576788888888A8A850025701
:104E9000678888502050888802576788885020206B
:104EA0002020025767F80810204080F8113969E087
:104EB00080808080808080E00257678040402010A2
:104EC0001008113969E020202020202020E007531D
:104ED00063205088005161F81733638040200255E9
:104EE0006570087888780257678080F0888888F035
:104EF000025565708880887002576708087888882E
:104F000088780255657088F0807002576730484095
:104F1000E0404040005767708888887808700257E2
:104F2000678080F0888888881237674000C04040DA
:104F300040E01049691000301010101090600257C6
:104F40006780808890E09088123767C0404040407A
:104F500040E0025565D0A8A8A8A8025565B0C88849
:104F600088880255657088888870005767F088883F
:104F700088F080800057677888888878080802550C
:104F800065B0C880808002556578807008F002574F
:104F9000672020F8202020180255658888889868A6
:104FA00002556588888850200255658888A8A850D1
:104FB000025565885020508800576788888850209F
:104FC0004080025565F8102040F8113969204040B2
:104FD000408040404020211969808080808080800E
:104FE0008080113969804040402040404080045317
:104FF0006348A890FFFFFFFFFFFFFFFFFFFFFFFFDA
:10500000FFFFFFFFFFFFFFFFFFFFFFFFFFFFFFFFB0
:10501000FFFFFFFFFF0C0060221767800080808089
:1050200080800157672070A8A0A8702002576730C1
:105030004840E04048B0025565A8508850A8025743
:10504000678850F820F82020221767808080008031
:10505000808012486870806090906010E019316123
:10506000A0026767788494A494847816356560A05C
:105070006000E00255652850A05028035363F808EB
:1050800008153161E00267677884B4A4A4847809C4
:105090005161F8174464609090600257672020F8CF
:1050A000202000F817356540A02040E0173565C086
:1050B000204020C0173363204080005767888888CD
:1050C00098E8808002586878E8E8E8682828282569
:1050D0002262C0C010326220C017356540C0404017
:1050E000E017356540A04000E0025565A05028500B
:1050F000A0025A6A40C04040503050781010025A06
:105100006A40C04040502808102038025A6AC02027
:105110004020D030507810100257672000202040E7
:105120008870025A6A402000708888F8888888024F
:105130005A6A102000708888F8888888025A6A2085
:105140005000708888F8888888025A6A68B00070B1
:105150008888F88888880259695000708888F8889B
:105160008888025A6A205020708888F888888802C7
:10517000576778A0A0F0A0A0B80059697088808017
:105180008088701060025A6A402000F88080F080A9
:1051900080F8025A6A102000F88080F08080F802BF
:1051A0005A6A205000F88080F08080F802596950D7
:1051B00000F88080F08080F8123A6A804000E04079
:1051C00040404040E0123A6A204000E04040404009
:1051D00040E0123A6A40A000E04040404040E01207
:1051E0003969A000E04040404040E0025767704805
:1051F00048E8484870025A6A68B0008888C8A89889
:105200008888025A6A4020007088888888887002DE
:105210005A6A10200070888888888870025A6A202C
:10522000500070888888888870025A6A68B0007058
:1052300088888888887002596950007088888888B2
:105240008870035565885020508801596908709806
:10525000A8A8A8C87080025A6A4020008888888858
:10526000888870025A6A1020008888888888887028
:10527000025A6A2050008888888888887002596994
:10528000500088888888888870025A6A10200088B0
:1052900088502020202012476780E0909090E08086
:1052A000025767708890A09088B00258684020002C
:1052B000700878887802586810200070087888781C
:1052C000025868205000700878887802586868B0E2
:1052D00000700878887802576750007008788878DE
:1052E0000258682050207008788878025565702828
:1052F00070A07800576770888088701060025868C6
:105300004020007088F0807002586810200070887B
:10531000F080700258682050007088F0807002574A
:105320006750007088F08070123868804000C0407C
:105330004040E0123868204000C0404040E0123851
:105340006840A000C0404040E0123767A000C04065
:105350004040E002596950205008788888887002DF
:10536000586868B000B0C888888802586840200033
:10537000708888887002586810200070888888704B
:10538000025868205000708888887002586868B099
:10539000007088888870025767500070888888700D
:1053A0000355652000F800200255657898A8C8F0DC
:1053B0000258684020008888888870025868102049
:1053C00000888888887002586820500088888888FB
:1053D0007002576750008888888870005A6A1020C9
:1053E00000888888502040800059698080F0888833
:1053F00088F080800059695000888888502040805B
:105400002C002C00542C25730D00253032643A25D5
:105410003032640001040600FF05010301FA20FF99
:10542000FF05FF05FF0700401215458080800080C2
:10543000053242A0A0024545A0F0A0F0A0013646EA
:1054400040E0C020E04002354580204080200245F9
:105450004540A040A0501512428080112646408051
:105460008080804001264680404040408002354593
:10547000A040E040A00235454040E04040012242CB
:105480004080043141E01211418002354520204026
:10549000808002354540A0E0A04002354540C04034
:1054A00040E002354540A02040E0023545E0204084
:1054B00020C0023545A0A0E02020023545E080C094
:1054C00020C00235456080C0A040023545E0204044
:1054D000808002354560A040A0C002354540A060F4
:1054E00020C0121444800000800125454000004087
:1054F000800235452040804020033343E000E00235
:1055000035458040204080023545C02040004002A3
:10551000354560A0A0806002354540A0E0A0A00213
:105520003545C0A0C0A0C002354540A080A04002C3
:105530003545C0A0A0A0C0023545E080C080E00293
:105540003545E080C080800235456080A0A06002C3
:105550003545A0A0E0A0A0023545E0404040E00273
:105560003545202020A040023545A0A0C0A0A002C3
:10557000354580808080E0023545A0E0E0A0A002B3
:10558000354520A0E0A08002354540A0A0A0400203
:105590003545C0A0C0808001364640A0A0A0402074
:1055A000023545C0A0C0A0A002354560804020C0A3
:1055B000023545E040404040023545A0A0A0A0E0B3
:1055C000023545A0A0A0E040023545A0A0E0E0A043
:1055D000023545A0A040A0A0023545A0A040404013
:1055E000023545E0204080E0122545C0808080C023
:1055F0000235458080402020022545C0404040C003
:1056000005324240A0013141E0152242804002347F
:105610004460A0A06002354580C0A0A0C002344410
:10562000608080600235452060A0A0600234444064
:10563000A0C0600235452040E0404001354560A0F3
:105640006020C002354580C0A0A0A00235454000C2
:10565000C040E00136462000202020C002354580B1
:10566000A0C0A0A0023545C0404040E0023444A0A4
:10567000E0A0A0023444C0A0A0A002344440A0A0F6
:1056800040013545C0A0C0808001354560A0A060C4
:1056900020023444A0C0808002344460C020C00294
:1056A000354540E0404020023444A0A0A0600234D0
:1056B00044A0A0A040023444A0A0E0A0023444A032
:1056C0004040A0013545A0A06020C0023444E02045
:1056D00040E00136462040C0404020121545808001
:1056E00080808001364680406040408005424250C4
:1056F000A0FFFFFFFFFFFFFFFFFFFFFFFFFFFFFF19
:10570000FFFFFFFFFFFFFFFFFFFFFFFFFFFFFFFFA9
:10571000FFFF07004012154580008080800235455C
:1057200040E080E04002354520406040A002444413
:1057300090606090023545A040E0404012154580E1
:105740008000808001364660C0A06020C0063141E4
:10575000A00146466090D0D0906002354560A060C0
:1057600000E003434350A050033242E020043141A3
:10577000E003444460F0D060063141E0043343402C
:10578000A04002354540E04000E0032444C0408092
:10579000C0022545C040804080152242408001352E
:1057A00045A0A0A0C08002454570D0D05050141133
:1057B0004180122242408003244440C040400235D0
:1057C0004540A04000E0034343A050A0014646806E
:1057D00080805070100146468080B0102030014615
:1057E00046C0408050B01002354540004080600205
:1057F00035458040A0E0A00235452040A0E0A00251
:105800003545C040A0E0A002354560C0A0E0A00240
:105810003545A040A0E0A00235454040A0E0A002F0
:10582000454570A0F0A0B001364640A080A0408061
:1058300002354580E0C080E002354520E0C080E0D0
:1058400002354560E0C080E0023545A0E0C080E060
:1058500002354580E04040E002354520E04040E030
:1058600002354540E04040E0023545A0404040E080
:10587000024545E050D050E002454550A0E0E0A090
:105880000235458040A0A0400235452040A0A04000
:105890000235454040A0A04002454570E0A0A04030
:1058A000023545A040A0A040033343A040A00235EC
:1058B0004560A0E0A0C00235458040A0A0E00235D0
:1058C000452040A0A0E00235454000A0A0E0023500
:1058D00045A000A0A0E00235452000A040400235D0
:1058E0004580C0A0C08001364640A0C0A0E0800234
:1058F0003545804060A060023545204060A06002D0
:105900003545600060A06002454550A060A060027F
:105910003545A00060A060023545400060A06002EF
:10592000444470B0A07001354540A080604002350D
:10593000458040A0C0600235452040A0C0600235CF
:1059400045C040A0C060023545A040A0C0600235FF
:105950004580404040E002354520C04040E00235EF
:105960004540A04040E0023545A000C040E002357F
:1059700045A04060A04002454550A0C0A0A002350F
:1059800045804040A040023545204040A0400235BF
:1059900045400040A040023545E00040A0400235AF
:1059A00045A00040A0400235454000E000400234E0
:1059B0004460A0A0C00235458040A0A060023545EB
:1059C0002040A0A0600235454000A0A060023545FF
:1059D000A000A0A0600136462040A0E020C0013613
:1059E000468080C0A0C080013646A000A0E020C054
:1059F0002B434D47463A200041542B434D47463FE9
:105A00000D0041542B434D47463D25640D002C00AD
:105A10002C002B434E4D493A200041542B434E4D10
:105A2000493F0D002C002C002B43495047534D4C4F
:105A30004F433A200041542B43495047534D4C4F5C
:105A4000433D25642C25640D002C22005241544511
:105A50003A20002C220050484F4E454E554D3A20DA
:105A6000002C22005057443A20002C220055534568
:105A7000523A20002C220041504E3A20002C2200A5
:105A8000434F4E545950453A20002C22002C2200FE
:105A90002B53415042523A0041542B5341504252F1
:105AA0003D25642C25642C222573222C222573226B
:105AB0000D0041542B53415042523D25642C256426
:105AC0000D0031392E30382E303100502C25730D19
:105AD00000415426460D004E4F524D414C20504F30
